{
  "contractName": "MeToken",
  "abi": [
    {
      "inputs": [
        {
          "internalType": "uint256",
          "name": "initialSupply",
          "type": "uint256"
        }
      ],
      "stateMutability": "nonpayable",
      "type": "constructor"
    },
    {
      "anonymous": false,
      "inputs": [
        {
          "indexed": true,
          "internalType": "address",
          "name": "owner",
          "type": "address"
        },
        {
          "indexed": true,
          "internalType": "address",
          "name": "spender",
          "type": "address"
        },
        {
          "indexed": false,
          "internalType": "uint256",
          "name": "value",
          "type": "uint256"
        }
      ],
      "name": "Approval",
      "type": "event"
    },
    {
      "anonymous": false,
      "inputs": [
        {
          "indexed": true,
          "internalType": "address",
          "name": "from",
          "type": "address"
        },
        {
          "indexed": true,
          "internalType": "address",
          "name": "to",
          "type": "address"
        },
        {
          "indexed": false,
          "internalType": "uint256",
          "name": "value",
          "type": "uint256"
        }
      ],
      "name": "Transfer",
      "type": "event"
    },
    {
      "inputs": [
        {
          "internalType": "address",
          "name": "owner",
          "type": "address"
        },
        {
          "internalType": "address",
          "name": "spender",
          "type": "address"
        }
      ],
      "name": "allowance",
      "outputs": [
        {
          "internalType": "uint256",
          "name": "",
          "type": "uint256"
        }
      ],
      "stateMutability": "view",
      "type": "function"
    },
    {
      "inputs": [
        {
          "internalType": "address",
          "name": "spender",
          "type": "address"
        },
        {
          "internalType": "uint256",
          "name": "amount",
          "type": "uint256"
        }
      ],
      "name": "approve",
      "outputs": [
        {
          "internalType": "bool",
          "name": "",
          "type": "bool"
        }
      ],
      "stateMutability": "nonpayable",
      "type": "function"
    },
    {
      "inputs": [
        {
          "internalType": "address",
          "name": "account",
          "type": "address"
        }
      ],
      "name": "balanceOf",
      "outputs": [
        {
          "internalType": "uint256",
          "name": "",
          "type": "uint256"
        }
      ],
      "stateMutability": "view",
      "type": "function"
    },
    {
      "inputs": [],
      "name": "decimals",
      "outputs": [
        {
          "internalType": "uint8",
          "name": "",
          "type": "uint8"
        }
      ],
      "stateMutability": "view",
      "type": "function"
    },
    {
      "inputs": [
        {
          "internalType": "address",
          "name": "spender",
          "type": "address"
        },
        {
          "internalType": "uint256",
          "name": "subtractedValue",
          "type": "uint256"
        }
      ],
      "name": "decreaseAllowance",
      "outputs": [
        {
          "internalType": "bool",
          "name": "",
          "type": "bool"
        }
      ],
      "stateMutability": "nonpayable",
      "type": "function"
    },
    {
      "inputs": [],
      "name": "destroy",
      "outputs": [],
      "stateMutability": "nonpayable",
      "type": "function"
    },
    {
      "inputs": [
        {
          "internalType": "address",
          "name": "spender",
          "type": "address"
        },
        {
          "internalType": "uint256",
          "name": "addedValue",
          "type": "uint256"
        }
      ],
      "name": "increaseAllowance",
      "outputs": [
        {
          "internalType": "bool",
          "name": "",
          "type": "bool"
        }
      ],
      "stateMutability": "nonpayable",
      "type": "function"
    },
    {
      "inputs": [],
      "name": "name",
      "outputs": [
        {
          "internalType": "string",
          "name": "",
          "type": "string"
        }
      ],
      "stateMutability": "view",
      "type": "function"
    },
    {
      "inputs": [],
      "name": "symbol",
      "outputs": [
        {
          "internalType": "string",
          "name": "",
          "type": "string"
        }
      ],
      "stateMutability": "view",
      "type": "function"
    },
    {
      "inputs": [],
      "name": "totalSupply",
      "outputs": [
        {
          "internalType": "uint256",
          "name": "",
          "type": "uint256"
        }
      ],
      "stateMutability": "view",
      "type": "function"
    },
    {
      "inputs": [
        {
          "internalType": "address",
          "name": "recipient",
          "type": "address"
        },
        {
          "internalType": "uint256",
          "name": "amount",
          "type": "uint256"
        }
      ],
      "name": "transfer",
      "outputs": [
        {
          "internalType": "bool",
          "name": "",
          "type": "bool"
        }
      ],
      "stateMutability": "nonpayable",
      "type": "function"
    },
    {
      "inputs": [
        {
          "internalType": "address",
          "name": "sender",
          "type": "address"
        },
        {
          "internalType": "address",
          "name": "recipient",
          "type": "address"
        },
        {
          "internalType": "uint256",
          "name": "amount",
          "type": "uint256"
        }
      ],
      "name": "transferFrom",
      "outputs": [
        {
          "internalType": "bool",
          "name": "",
          "type": "bool"
        }
      ],
      "stateMutability": "nonpayable",
      "type": "function"
    },
    {
      "inputs": [],
      "name": "withdraw",
      "outputs": [],
      "stateMutability": "nonpayable",
      "type": "function"
    },
    {
      "inputs": [
        {
          "internalType": "address",
          "name": "_address",
          "type": "address"
        }
      ],
      "name": "isStakeholder",
      "outputs": [
        {
          "internalType": "bool",
          "name": "",
          "type": "bool"
        },
        {
          "internalType": "uint256",
          "name": "",
          "type": "uint256"
        }
      ],
      "stateMutability": "view",
      "type": "function"
    },
    {
      "inputs": [
        {
          "internalType": "address",
          "name": "_address",
          "type": "address"
        }
      ],
      "name": "addStakeholder",
      "outputs": [],
      "stateMutability": "nonpayable",
      "type": "function"
    },
    {
      "inputs": [
        {
          "internalType": "address",
          "name": "_address",
          "type": "address"
        }
      ],
      "name": "removeStakeholder",
      "outputs": [],
      "stateMutability": "nonpayable",
      "type": "function"
    },
    {
      "inputs": [
        {
          "internalType": "address",
          "name": "_stakeholder",
          "type": "address"
        }
      ],
      "name": "stakeOf",
      "outputs": [
        {
          "internalType": "uint256",
          "name": "",
          "type": "uint256"
        }
      ],
      "stateMutability": "view",
      "type": "function"
    },
    {
      "inputs": [],
      "name": "totalStakes",
      "outputs": [
        {
          "internalType": "uint256",
          "name": "",
          "type": "uint256"
        }
      ],
      "stateMutability": "view",
      "type": "function"
    },
    {
      "inputs": [
        {
          "internalType": "uint256",
          "name": "_stakes",
          "type": "uint256"
        }
      ],
      "name": "createStake",
      "outputs": [],
      "stateMutability": "nonpayable",
      "type": "function"
    },
    {
      "inputs": [
        {
          "internalType": "uint256",
          "name": "_stakes",
          "type": "uint256"
        }
      ],
      "name": "removeStake",
      "outputs": [],
      "stateMutability": "nonpayable",
      "type": "function"
    },
    {
      "inputs": [
        {
          "internalType": "address",
          "name": "_address",
          "type": "address"
        }
      ],
      "name": "rewardOf",
      "outputs": [
        {
          "internalType": "uint256",
          "name": "",
          "type": "uint256"
        }
      ],
      "stateMutability": "view",
      "type": "function"
    },
    {
      "inputs": [],
      "name": "totalRewards",
      "outputs": [
        {
          "internalType": "uint256",
          "name": "",
          "type": "uint256"
        }
      ],
      "stateMutability": "view",
      "type": "function"
    },
    {
      "inputs": [
        {
          "internalType": "address",
          "name": "_stakeholder",
          "type": "address"
        }
      ],
      "name": "computeRewards",
      "outputs": [
        {
          "internalType": "uint256",
          "name": "",
          "type": "uint256"
        }
      ],
      "stateMutability": "view",
      "type": "function"
    },
    {
      "inputs": [],
      "name": "distributeRewards",
      "outputs": [],
      "stateMutability": "nonpayable",
      "type": "function"
    },
    {
      "inputs": [],
      "name": "withdrawReward",
      "outputs": [],
      "stateMutability": "nonpayable",
      "type": "function"
    }
  ],
  "bytecode": "0x60806040523480156200001157600080fd5b5060405162002f1238038062002f128339818101604052810190620000379190620003a4565b6040518060400160405280600781526020017f4d65546f6b656e000000000000000000000000000000000000000000000000008152506040518060400160405280600381526020017f4d455400000000000000000000000000000000000000000000000000000000008152508160039080519060200190620000bb929190620002b4565b508060049080519060200190620000d4929190620002b4565b50505033600560006101000a81548173ffffffffffffffffffffffffffffffffffffffff021916908373ffffffffffffffffffffffffffffffffffffffff1602179055506200012a33826200013160201b60201c565b5062000578565b600073ffffffffffffffffffffffffffffffffffffffff168273ffffffffffffffffffffffffffffffffffffffff161415620001a4576040517f08c379a00000000000000000000000000000000000000000000000000000000081526004016200019b9062000437565b60405180910390fd5b620001b860008383620002aa60201b60201c565b8060026000828254620001cc919062000488565b92505081905550806000808473ffffffffffffffffffffffffffffffffffffffff1673ffffffffffffffffffffffffffffffffffffffff168152602001908152602001600020600082825462000223919062000488565b925050819055508173ffffffffffffffffffffffffffffffffffffffff16600073ffffffffffffffffffffffffffffffffffffffff167fddf252ad1be2c89b69c2b068fc378daa952ba7f163c4a11628f55a4df523b3ef836040516200028a9190620004f6565b60405180910390a3620002a660008383620002af60201b60201c565b5050565b505050565b505050565b828054620002c29062000542565b90600052602060002090601f016020900481019282620002e6576000855562000332565b82601f106200030157805160ff191683800117855562000332565b8280016001018555821562000332579182015b828111156200033157825182559160200191906001019062000314565b5b50905062000341919062000345565b5090565b5b808211156200036057600081600090555060010162000346565b5090565b600080fd5b6000819050919050565b6200037e8162000369565b81146200038a57600080fd5b50565b6000815190506200039e8162000373565b92915050565b600060208284031215620003bd57620003bc62000364565b5b6000620003cd848285016200038d565b91505092915050565b600082825260208201905092915050565b7f45524332303a206d696e7420746f20746865207a65726f206164647265737300600082015250565b60006200041f601f83620003d6565b91506200042c82620003e7565b602082019050919050565b60006020820190508181036000830152620004528162000410565b9050919050565b7f4e487b7100000000000000000000000000000000000000000000000000000000600052601160045260246000fd5b6000620004958262000369565b9150620004a28362000369565b9250827fffffffffffffffffffffffffffffffffffffffffffffffffffffffffffffffff03821115620004da57620004d962000459565b5b828201905092915050565b620004f08162000369565b82525050565b60006020820190506200050d6000830184620004e5565b92915050565b7f4e487b7100000000000000000000000000000000000000000000000000000000600052602260045260246000fd5b600060028204905060018216806200055b57607f821691505b6020821081141562000572576200057162000513565b5b50919050565b61298a80620005886000396000f3fe608060405234801561001057600080fd5b50600436106101735760003560e01c806370a08231116100de578063b48ea72511610097578063c885bc5811610071578063c885bc581461044e578063dd62ed3e14610458578063e5c42fd114610488578063ef037b90146104a457610173565b8063b48ea725146103e4578063bcb0c2d714610414578063bf9befb11461043057610173565b806370a082311461031057806383197ef014610340578063939624ab1461034a57806395d89b4114610366578063a457c2d714610384578063a9059cbb146103b457610173565b806323b872dd1161013057806323b872dd1461024e578063313ce5671461027e578063395093511461029c5780633ccfd60b146102cc57806342623360146102d65780636f4a2cd01461030657610173565b806306fdde0314610178578063095ea7b3146101965780630e15561a146101c657806318160ddd146101e45780631bf6ddae146102025780631d62ebd91461021e575b600080fd5b6101806104d5565b60405161018d9190611d1e565b60405180910390f35b6101b060048036038101906101ab9190611dd9565b610567565b6040516101bd9190611e34565b60405180910390f35b6101ce610585565b6040516101db9190611e5e565b60405180910390f35b6101ec61064a565b6040516101f99190611e5e565b60405180910390f35b61021c60048036038101906102179190611e79565b610654565b005b61023860048036038101906102339190611ea6565b610748565b6040516102459190611e5e565b60405180910390f35b61026860048036038101906102639190611ed3565b610791565b6040516102759190611e34565b60405180910390f35b610286610889565b6040516102939190611f42565b60405180910390f35b6102b660048036038101906102b19190611dd9565b610892565b6040516102c39190611e34565b60405180910390f35b6102d461093e565b005b6102f060048036038101906102eb9190611ea6565b610a7e565b6040516102fd9190611e5e565b60405180910390f35b61030e610ac7565b005b61032a60048036038101906103259190611ea6565b610c65565b6040516103379190611e5e565b60405180910390f35b610348610cad565b005b610364600480360381019061035f9190611e79565b610d78565b005b61036e610e6b565b60405161037b9190611d1e565b60405180910390f35b61039e60048036038101906103999190611dd9565b610efd565b6040516103ab9190611e34565b60405180910390f35b6103ce60048036038101906103c99190611dd9565b610fe8565b6040516103db9190611e34565b60405180910390f35b6103fe60048036038101906103f99190611ea6565b611006565b60405161040b9190611e5e565b60405180910390f35b61042e60048036038101906104299190611ea6565b61105b565b005b6104386111b3565b6040516104459190611e5e565b60405180910390f35b610456611278565b005b610472600480360381019061046d9190611f5d565b61130e565b60405161047f9190611e5e565b60405180910390f35b6104a2600480360381019061049d9190611ea6565b611395565b005b6104be60048036038101906104b99190611ea6565b611410565b6040516104cc929190611f9d565b60405180910390f35b6060600380546104e490611ff5565b80601f016020809104026020016040519081016040528092919081815260200182805461051090611ff5565b801561055d5780601f106105325761010080835404028352916020019161055d565b820191906000526020600020905b81548152906001019060200180831161054057829003601f168201915b5050505050905090565b600061057b6105746114c4565b84846114cc565b6001905092915050565b6000806000905060005b6006805490508110156106425761062c60086000600684815481106105b7576105b6612027565b5b9060005260206000200160009054906101000a900473ffffffffffffffffffffffffffffffffffffffff1673ffffffffffffffffffffffffffffffffffffffff1673ffffffffffffffffffffffffffffffffffffffff168152602001908152602001600020548361169790919063ffffffff16565b915060018161063b9190612085565b905061058f565b508091505090565b6000600254905090565b61065e33826116ad565b6000600760003373ffffffffffffffffffffffffffffffffffffffff1673ffffffffffffffffffffffffffffffffffffffff1681526020019081526020016000205414156106b0576106af33611395565b5b61070281600760003373ffffffffffffffffffffffffffffffffffffffff1673ffffffffffffffffffffffffffffffffffffffff1681526020019081526020016000205461169790919063ffffffff16565b600760003373ffffffffffffffffffffffffffffffffffffffff1673ffffffffffffffffffffffffffffffffffffffff1681526020019081526020016000208190555050565b6000600860008373ffffffffffffffffffffffffffffffffffffffff1673ffffffffffffffffffffffffffffffffffffffff168152602001908152602001600020549050919050565b600061079e848484611884565b6000600160008673ffffffffffffffffffffffffffffffffffffffff1673ffffffffffffffffffffffffffffffffffffffff16815260200190815260200160002060006107e96114c4565b73ffffffffffffffffffffffffffffffffffffffff1673ffffffffffffffffffffffffffffffffffffffff16815260200190815260200160002054905082811015610869576040517f08c379a00000000000000000000000000000000000000000000000000000000081526004016108609061214d565b60405180910390fd5b61087d856108756114c4565b8584036114cc565b60019150509392505050565b60006012905090565b600061093461089f6114c4565b8484600160006108ad6114c4565b73ffffffffffffffffffffffffffffffffffffffff1673ffffffffffffffffffffffffffffffffffffffff16815260200190815260200160002060008873ffffffffffffffffffffffffffffffffffffffff1673ffffffffffffffffffffffffffffffffffffffff1681526020019081526020016000205461092f9190612085565b6114cc565b6001905092915050565b6113883073ffffffffffffffffffffffffffffffffffffffff166370a08231306040518263ffffffff1660e01b815260040161097a919061217c565b602060405180830381865afa158015610997573d6000803e3d6000fd5b505050506040513d601f19601f820116820180604052508101906109bb91906121ac565b116109fb576040517f08c379a00000000000000000000000000000000000000000000000000000000081526004016109f29061224b565b60405180910390fd5b3073ffffffffffffffffffffffffffffffffffffffff1663a9059cbb336103e86040518363ffffffff1660e01b8152600401610a389291906122b0565b6020604051808303816000875af1158015610a57573d6000803e3d6000fd5b505050506040513d601f19601f82011682018060405250810190610a7b9190612305565b50565b6000600760008373ffffffffffffffffffffffffffffffffffffffff1673ffffffffffffffffffffffffffffffffffffffff168152602001908152602001600020549050919050565b600560009054906101000a900473ffffffffffffffffffffffffffffffffffffffff1673ffffffffffffffffffffffffffffffffffffffff163373ffffffffffffffffffffffffffffffffffffffff1614610b57576040517f08c379a0000000000000000000000000000000000000000000000000000000008152600401610b4e906123a4565b60405180910390fd5b60005b600680549050811015610c6257600060068281548110610b7d57610b7c612027565b5b9060005260206000200160009054906101000a900473ffffffffffffffffffffffffffffffffffffffff1690506000610bb582611006565b9050610c0981600860008573ffffffffffffffffffffffffffffffffffffffff1673ffffffffffffffffffffffffffffffffffffffff1681526020019081526020016000205461169790919063ffffffff16565b600860008473ffffffffffffffffffffffffffffffffffffffff1673ffffffffffffffffffffffffffffffffffffffff168152602001908152602001600020819055505050600181610c5b9190612085565b9050610b5a565b50565b60008060008373ffffffffffffffffffffffffffffffffffffffff1673ffffffffffffffffffffffffffffffffffffffff168152602001908152602001600020549050919050565b600560009054906101000a900473ffffffffffffffffffffffffffffffffffffffff1673ffffffffffffffffffffffffffffffffffffffff163373ffffffffffffffffffffffffffffffffffffffff1614610d3d576040517f08c379a0000000000000000000000000000000000000000000000000000000008152600401610d34906123a4565b60405180910390fd5b600560009054906101000a900473ffffffffffffffffffffffffffffffffffffffff1673ffffffffffffffffffffffffffffffffffffffff16ff5b610dca81600760003373ffffffffffffffffffffffffffffffffffffffff1673ffffffffffffffffffffffffffffffffffffffff16815260200190815260200160002054611b0590919063ffffffff16565b600760003373ffffffffffffffffffffffffffffffffffffffff1673ffffffffffffffffffffffffffffffffffffffff168152602001908152602001600020819055506000600760003373ffffffffffffffffffffffffffffffffffffffff1673ffffffffffffffffffffffffffffffffffffffff1681526020019081526020016000205414610e5e57610e5d3361105b565b5b610e683382611b1b565b50565b606060048054610e7a90611ff5565b80601f0160208091040260200160405190810160405280929190818152602001828054610ea690611ff5565b8015610ef35780601f10610ec857610100808354040283529160200191610ef3565b820191906000526020600020905b815481529060010190602001808311610ed657829003601f168201915b5050505050905090565b60008060016000610f0c6114c4565b73ffffffffffffffffffffffffffffffffffffffff1673ffffffffffffffffffffffffffffffffffffffff16815260200190815260200160002060008573ffffffffffffffffffffffffffffffffffffffff1673ffffffffffffffffffffffffffffffffffffffff16815260200190815260200160002054905082811015610fc9576040517f08c379a0000000000000000000000000000000000000000000000000000000008152600401610fc090612436565b60405180910390fd5b610fdd610fd46114c4565b858584036114cc565b600191505092915050565b6000610ffc610ff56114c4565b8484611884565b6001905092915050565b60006064600760008473ffffffffffffffffffffffffffffffffffffffff1673ffffffffffffffffffffffffffffffffffffffff168152602001908152602001600020546110549190612485565b9050919050565b600560009054906101000a900473ffffffffffffffffffffffffffffffffffffffff1673ffffffffffffffffffffffffffffffffffffffff163373ffffffffffffffffffffffffffffffffffffffff16146110eb576040517f08c379a00000000000000000000000000000000000000000000000000000000081526004016110e2906123a4565b60405180910390fd5b6000806110f783611410565b9150915081156111ae576006600160068054905061111591906124b6565b8154811061112657611125612027565b5b9060005260206000200160009054906101000a900473ffffffffffffffffffffffffffffffffffffffff166006828154811061116557611164612027565b5b9060005260206000200160006101000a81548173ffffffffffffffffffffffffffffffffffffffff021916908373ffffffffffffffffffffffffffffffffffffffff1602179055505b505050565b6000806000905060005b6006805490508110156112705761125a60076000600684815481106111e5576111e4612027565b5b9060005260206000200160009054906101000a900473ffffffffffffffffffffffffffffffffffffffff1673ffffffffffffffffffffffffffffffffffffffff1673ffffffffffffffffffffffffffffffffffffffff168152602001908152602001600020548361169790919063ffffffff16565b91506001816112699190612085565b90506111bd565b508091505090565b6000600860003373ffffffffffffffffffffffffffffffffffffffff1673ffffffffffffffffffffffffffffffffffffffff1681526020019081526020016000205490506000600860003373ffffffffffffffffffffffffffffffffffffffff1673ffffffffffffffffffffffffffffffffffffffff1681526020019081526020016000208190555061130b3382611b1b565b50565b6000600160008473ffffffffffffffffffffffffffffffffffffffff1673ffffffffffffffffffffffffffffffffffffffff16815260200190815260200160002060008373ffffffffffffffffffffffffffffffffffffffff1673ffffffffffffffffffffffffffffffffffffffff16815260200190815260200160002054905092915050565b60006113a082611410565b5090508061140c576006829080600181540180825580915050600190039060005260206000200160009091909190916101000a81548173ffffffffffffffffffffffffffffffffffffffff021916908373ffffffffffffffffffffffffffffffffffffffff1602179055505b5050565b60008060005b6006805490508110156114b6576006818154811061143757611436612027565b5b9060005260206000200160009054906101000a900473ffffffffffffffffffffffffffffffffffffffff1673ffffffffffffffffffffffffffffffffffffffff168473ffffffffffffffffffffffffffffffffffffffff1614156114a25760018192509250506114bf565b6001816114af9190612085565b9050611416565b50600080915091505b915091565b600033905090565b600073ffffffffffffffffffffffffffffffffffffffff168373ffffffffffffffffffffffffffffffffffffffff16141561153c576040517f08c379a00000000000000000000000000000000000000000000000000000000081526004016115339061255c565b60405180910390fd5b600073ffffffffffffffffffffffffffffffffffffffff168273ffffffffffffffffffffffffffffffffffffffff1614156115ac576040517f08c379a00000000000000000000000000000000000000000000000000000000081526004016115a3906125ee565b60405180910390fd5b80600160008573ffffffffffffffffffffffffffffffffffffffff1673ffffffffffffffffffffffffffffffffffffffff16815260200190815260200160002060008473ffffffffffffffffffffffffffffffffffffffff1673ffffffffffffffffffffffffffffffffffffffff168152602001908152602001600020819055508173ffffffffffffffffffffffffffffffffffffffff168373ffffffffffffffffffffffffffffffffffffffff167f8c5be1e5ebec7d5bd14f71427d1e84f3dd0314c0f7b2291e5b200ac8c7c3b9258360405161168a9190611e5e565b60405180910390a3505050565b600081836116a59190612085565b905092915050565b600073ffffffffffffffffffffffffffffffffffffffff168273ffffffffffffffffffffffffffffffffffffffff16141561171d576040517f08c379a000000000000000000000000000000000000000000000000000000000815260040161171490612680565b60405180910390fd5b61172982600083611c7b565b60008060008473ffffffffffffffffffffffffffffffffffffffff1673ffffffffffffffffffffffffffffffffffffffff168152602001908152602001600020549050818110156117af576040517f08c379a00000000000000000000000000000000000000000000000000000000081526004016117a690612712565b60405180910390fd5b8181036000808573ffffffffffffffffffffffffffffffffffffffff1673ffffffffffffffffffffffffffffffffffffffff16815260200190815260200160002081905550816002600082825461180691906124b6565b92505081905550600073ffffffffffffffffffffffffffffffffffffffff168373ffffffffffffffffffffffffffffffffffffffff167fddf252ad1be2c89b69c2b068fc378daa952ba7f163c4a11628f55a4df523b3ef8460405161186b9190611e5e565b60405180910390a361187f83600084611c80565b505050565b600073ffffffffffffffffffffffffffffffffffffffff168373ffffffffffffffffffffffffffffffffffffffff1614156118f4576040517f08c379a00000000000000000000000000000000000000000000000000000000081526004016118eb906127a4565b60405180910390fd5b600073ffffffffffffffffffffffffffffffffffffffff168273ffffffffffffffffffffffffffffffffffffffff161415611964576040517f08c379a000000000000000000000000000000000000000000000000000000000815260040161195b90612836565b60405180910390fd5b61196f838383611c7b565b60008060008573ffffffffffffffffffffffffffffffffffffffff1673ffffffffffffffffffffffffffffffffffffffff168152602001908152602001600020549050818110156119f5576040517f08c379a00000000000000000000000000000000000000000000000000000000081526004016119ec906128c8565b60405180910390fd5b8181036000808673ffffffffffffffffffffffffffffffffffffffff1673ffffffffffffffffffffffffffffffffffffffff16815260200190815260200160002081905550816000808573ffffffffffffffffffffffffffffffffffffffff1673ffffffffffffffffffffffffffffffffffffffff1681526020019081526020016000206000828254611a889190612085565b925050819055508273ffffffffffffffffffffffffffffffffffffffff168473ffffffffffffffffffffffffffffffffffffffff167fddf252ad1be2c89b69c2b068fc378daa952ba7f163c4a11628f55a4df523b3ef84604051611aec9190611e5e565b60405180910390a3611aff848484611c80565b50505050565b60008183611b1391906124b6565b905092915050565b600073ffffffffffffffffffffffffffffffffffffffff168273ffffffffffffffffffffffffffffffffffffffff161415611b8b576040517f08c379a0000000000000000000000000000000000000000000000000000000008152600401611b8290612934565b60405180910390fd5b611b9760008383611c7b565b8060026000828254611ba99190612085565b92505081905550806000808473ffffffffffffffffffffffffffffffffffffffff1673ffffffffffffffffffffffffffffffffffffffff1681526020019081526020016000206000828254611bfe9190612085565b925050819055508173ffffffffffffffffffffffffffffffffffffffff16600073ffffffffffffffffffffffffffffffffffffffff167fddf252ad1be2c89b69c2b068fc378daa952ba7f163c4a11628f55a4df523b3ef83604051611c639190611e5e565b60405180910390a3611c7760008383611c80565b5050565b505050565b505050565b600081519050919050565b600082825260208201905092915050565b60005b83811015611cbf578082015181840152602081019050611ca4565b83811115611cce576000848401525b50505050565b6000601f19601f8301169050919050565b6000611cf082611c85565b611cfa8185611c90565b9350611d0a818560208601611ca1565b611d1381611cd4565b840191505092915050565b60006020820190508181036000830152611d388184611ce5565b905092915050565b600080fd5b600073ffffffffffffffffffffffffffffffffffffffff82169050919050565b6000611d7082611d45565b9050919050565b611d8081611d65565b8114611d8b57600080fd5b50565b600081359050611d9d81611d77565b92915050565b6000819050919050565b611db681611da3565b8114611dc157600080fd5b50565b600081359050611dd381611dad565b92915050565b60008060408385031215611df057611def611d40565b5b6000611dfe85828601611d8e565b9250506020611e0f85828601611dc4565b9150509250929050565b60008115159050919050565b611e2e81611e19565b82525050565b6000602082019050611e496000830184611e25565b92915050565b611e5881611da3565b82525050565b6000602082019050611e736000830184611e4f565b92915050565b600060208284031215611e8f57611e8e611d40565b5b6000611e9d84828501611dc4565b91505092915050565b600060208284031215611ebc57611ebb611d40565b5b6000611eca84828501611d8e565b91505092915050565b600080600060608486031215611eec57611eeb611d40565b5b6000611efa86828701611d8e565b9350506020611f0b86828701611d8e565b9250506040611f1c86828701611dc4565b9150509250925092565b600060ff82169050919050565b611f3c81611f26565b82525050565b6000602082019050611f576000830184611f33565b92915050565b60008060408385031215611f7457611f73611d40565b5b6000611f8285828601611d8e565b9250506020611f9385828601611d8e565b9150509250929050565b6000604082019050611fb26000830185611e25565b611fbf6020830184611e4f565b9392505050565b7f4e487b7100000000000000000000000000000000000000000000000000000000600052602260045260246000fd5b6000600282049050600182168061200d57607f821691505b6020821081141561202157612020611fc6565b5b50919050565b7f4e487b7100000000000000000000000000000000000000000000000000000000600052603260045260246000fd5b7f4e487b7100000000000000000000000000000000000000000000000000000000600052601160045260246000fd5b600061209082611da3565b915061209b83611da3565b9250827fffffffffffffffffffffffffffffffffffffffffffffffffffffffffffffffff038211156120d0576120cf612056565b5b828201905092915050565b7f45524332303a207472616e7366657220616d6f756e742065786365656473206160008201527f6c6c6f77616e6365000000000000000000000000000000000000000000000000602082015250565b6000612137602883611c90565b9150612142826120db565b604082019050919050565b600060208201905081810360008301526121668161212a565b9050919050565b61217681611d65565b82525050565b6000602082019050612191600083018461216d565b92915050565b6000815190506121a681611dad565b92915050565b6000602082840312156121c2576121c1611d40565b5b60006121d084828501612197565b91505092915050565b7f54686973204661756365742068617665203530303020746f6b656e732c20736f60008201527f207768792063616e742073656e6420796f7520746f6b656e7300000000000000602082015250565b6000612235603983611c90565b9150612240826121d9565b604082019050919050565b6000602082019050818103600083015261226481612228565b9050919050565b6000819050919050565b6000819050919050565b600061229a6122956122908461226b565b612275565b611da3565b9050919050565b6122aa8161227f565b82525050565b60006040820190506122c5600083018561216d565b6122d260208301846122a1565b9392505050565b6122e281611e19565b81146122ed57600080fd5b50565b6000815190506122ff816122d9565b92915050565b60006020828403121561231b5761231a611d40565b5b6000612329848285016122f0565b91505092915050565b7f4f6e6c792074686520636f6e7472616374206f776e65722063616e2063616c6c60008201527f20746869732066756e6374696f6e000000000000000000000000000000000000602082015250565b600061238e602e83611c90565b915061239982612332565b604082019050919050565b600060208201905081810360008301526123bd81612381565b9050919050565b7f45524332303a2064656372656173656420616c6c6f77616e63652062656c6f7760008201527f207a65726f000000000000000000000000000000000000000000000000000000602082015250565b6000612420602583611c90565b915061242b826123c4565b604082019050919050565b6000602082019050818103600083015261244f81612413565b9050919050565b7f4e487b7100000000000000000000000000000000000000000000000000000000600052601260045260246000fd5b600061249082611da3565b915061249b83611da3565b9250826124ab576124aa612456565b5b828204905092915050565b60006124c182611da3565b91506124cc83611da3565b9250828210156124df576124de612056565b5b828203905092915050565b7f45524332303a20617070726f76652066726f6d20746865207a65726f2061646460008201527f7265737300000000000000000000000000000000000000000000000000000000602082015250565b6000612546602483611c90565b9150612551826124ea565b604082019050919050565b6000602082019050818103600083015261257581612539565b9050919050565b7f45524332303a20617070726f766520746f20746865207a65726f20616464726560008201527f7373000000000000000000000000000000000000000000000000000000000000602082015250565b60006125d8602283611c90565b91506125e38261257c565b604082019050919050565b60006020820190508181036000830152612607816125cb565b9050919050565b7f45524332303a206275726e2066726f6d20746865207a65726f2061646472657360008201527f7300000000000000000000000000000000000000000000000000000000000000602082015250565b600061266a602183611c90565b91506126758261260e565b604082019050919050565b600060208201905081810360008301526126998161265d565b9050919050565b7f45524332303a206275726e20616d6f756e7420657863656564732062616c616e60008201527f6365000000000000000000000000000000000000000000000000000000000000602082015250565b60006126fc602283611c90565b9150612707826126a0565b604082019050919050565b6000602082019050818103600083015261272b816126ef565b9050919050565b7f45524332303a207472616e736665722066726f6d20746865207a65726f20616460008201527f6472657373000000000000000000000000000000000000000000000000000000602082015250565b600061278e602583611c90565b915061279982612732565b604082019050919050565b600060208201905081810360008301526127bd81612781565b9050919050565b7f45524332303a207472616e7366657220746f20746865207a65726f206164647260008201527f6573730000000000000000000000000000000000000000000000000000000000602082015250565b6000612820602383611c90565b915061282b826127c4565b604082019050919050565b6000602082019050818103600083015261284f81612813565b9050919050565b7f45524332303a207472616e7366657220616d6f756e742065786365656473206260008201527f616c616e63650000000000000000000000000000000000000000000000000000602082015250565b60006128b2602683611c90565b91506128bd82612856565b604082019050919050565b600060208201905081810360008301526128e1816128a5565b9050919050565b7f45524332303a206d696e7420746f20746865207a65726f206164647265737300600082015250565b600061291e601f83611c90565b9150612929826128e8565b602082019050919050565b6000602082019050818103600083015261294d81612911565b905091905056fea2646970667358221220701b4bbd61c2ab56e76362a4861a9c362ba291577617a1f62eacf8c8d704acb764736f6c634300080a0033",
  "immutableReferences": {},
  "source": "pragma solidity 0.8.10;\n\nimport 'openzeppelin-solidity/contracts/token/ERC20/ERC20.sol';\nimport \"openzeppelin-solidity/contracts/utils/math/SafeMath.sol\";\n\n\n//https://ropsten.etherscan.io/tx/0x6b8f10e233b9a8220a536bee7d39ff3a10a10fc8b80c4b3577fc948078db44df\n\n\nabstract contract Owned {\n    address payable owner;\n\n    constructor() {\n        owner = payable(msg.sender);\n    }\n\n    modifier onlyOwner {\n        require(msg.sender == owner, \"Only the contract owner can call this function\");\n        _;\n    }\n}\n\nabstract contract Mortal is Owned {\n    function destroy() public onlyOwner {\n        selfdestruct(owner);\n    }\n}\n\n\ncontract MeToken is ERC20, Mortal {\n    using SafeMath for uint256;\n\n    address[] internal stakeholders;\n\n    mapping(address => uint256) stakes;\n\n    mapping(address => uint256) rewards;\n\n    constructor(uint256 initialSupply) ERC20(\"MeToken\", \"MET\") {\n        _mint(msg.sender, initialSupply);\n    }\n\n    function withdraw() public {\n        require(this.balanceOf(address(this)) > 5000, \"This Faucet have 5000 tokens, so why cant send you tokens\");\n        this.transfer(msg.sender, 1000);\n    }\n\n    function isStakeholder(address _address) public view returns (bool, uint256) {\n        for (uint256 i = 0; i < stakeholders.length; i += 1) {\n            if (_address == stakeholders[i]) return (true, i);\n        }\n        return (false, 0);\n    }\n\n    function addStakeholder(address _address) public {\n        (bool _isStakeholder,) = isStakeholder(_address);\n        if (!_isStakeholder) stakeholders.push(_address);\n    }\n\n    function removeStakeholder(address _address) public onlyOwner {\n        (bool _isStakeholder, uint256 i) = isStakeholder(_address);\n        if (_isStakeholder) {\n            stakeholders[i] = stakeholders[stakeholders.length - 1];\n        }\n    }\n\n    function stakeOf(address _stakeholder) public view returns (uint256){\n        return stakes[_stakeholder];\n    }\n\n    function totalStakes() public view returns (uint256) {\n        uint256 _totalStakes = 0;\n        for (uint256 s = 0; s < stakeholders.length; s += 1) {\n            _totalStakes = _totalStakes.add(stakes[stakeholders[s]]);\n        }\n        return _totalStakes;\n    }\n\n    function createStake(uint256 _stakes) public {\n        _burn(msg.sender, _stakes);\n        if (stakes[msg.sender] == 0) addStakeholder(msg.sender);\n        stakes[msg.sender] = stakes[msg.sender].add(_stakes);\n    }\n\n\n    function removeStake(uint256 _stakes) public {\n        stakes[msg.sender] = stakes[msg.sender].sub(_stakes);\n        if (stakes[msg.sender] != 0) removeStakeholder(msg.sender);\n        _mint(msg.sender, _stakes);\n    }\n\n\n    function rewardOf(address _address) public view returns (uint256){\n        return rewards[_address];\n    }\n\n\n    function totalRewards() public view returns (uint256){\n        uint256 _totalRewards = 0;\n        for (uint256 i; i < stakeholders.length; i += 1) {\n            _totalRewards = _totalRewards.add(rewards[stakeholders[i]]);\n        }\n        return _totalRewards;\n    }\n\n\n    function computeRewards(address _stakeholder) public view returns (uint256){\n        return stakes[_stakeholder] / 100;\n    }\n\n\n    function distributeRewards() public onlyOwner {\n        for (uint256 s = 0; s < stakeholders.length; s += 1) {\n            address stakeholder = stakeholders[s];\n            uint256 reward = computeRewards(stakeholder);\n            rewards[stakeholder] = rewards[stakeholder].add(reward);\n        }\n    }\n\n    function withdrawReward() public {\n        uint256 reward = rewards[msg.sender];\n        rewards[msg.sender] = 0;\n        _mint(msg.sender, reward);\n    }\n\n}",
  "sourcePath": "/home/test/Desktop/contracts/metoken/contracts/MeToken.sol",
  "compiler": {
    "name": "solc",
    "version": "0.8.10+commit.fc410830.Emscripten.clang"
  },
  "schemaVersion": "3.4.4",
  "updatedAt": "2022-01-25T20:09:08.392Z",
  "devdoc": {
    "kind": "dev",
    "methods": {
      "allowance(address,address)": {
        "details": "See {IERC20-allowance}."
      },
      "approve(address,uint256)": {
        "details": "See {IERC20-approve}. Requirements: - `spender` cannot be the zero address."
      },
      "balanceOf(address)": {
        "details": "See {IERC20-balanceOf}."
      },
      "decimals()": {
        "details": "Returns the number of decimals used to get its user representation. For example, if `decimals` equals `2`, a balance of `505` tokens should be displayed to a user as `5.05` (`505 / 10 ** 2`). Tokens usually opt for a value of 18, imitating the relationship between Ether and Wei. This is the value {ERC20} uses, unless this function is overridden; NOTE: This information is only used for _display_ purposes: it in no way affects any of the arithmetic of the contract, including {IERC20-balanceOf} and {IERC20-transfer}."
      },
      "decreaseAllowance(address,uint256)": {
        "details": "Atomically decreases the allowance granted to `spender` by the caller. This is an alternative to {approve} that can be used as a mitigation for problems described in {IERC20-approve}. Emits an {Approval} event indicating the updated allowance. Requirements: - `spender` cannot be the zero address. - `spender` must have allowance for the caller of at least `subtractedValue`."
      },
      "increaseAllowance(address,uint256)": {
        "details": "Atomically increases the allowance granted to `spender` by the caller. This is an alternative to {approve} that can be used as a mitigation for problems described in {IERC20-approve}. Emits an {Approval} event indicating the updated allowance. Requirements: - `spender` cannot be the zero address."
      },
      "name()": {
        "details": "Returns the name of the token."
      },
      "symbol()": {
        "details": "Returns the symbol of the token, usually a shorter version of the name."
      },
      "totalSupply()": {
        "details": "See {IERC20-totalSupply}."
      },
      "transfer(address,uint256)": {
        "details": "See {IERC20-transfer}. Requirements: - `recipient` cannot be the zero address. - the caller must have a balance of at least `amount`."
      },
      "transferFrom(address,address,uint256)": {
        "details": "See {IERC20-transferFrom}. Emits an {Approval} event indicating the updated allowance. This is not required by the EIP. See the note at the beginning of {ERC20}. Requirements: - `sender` and `recipient` cannot be the zero address. - `sender` must have a balance of at least `amount`. - the caller must have allowance for ``sender``'s tokens of at least `amount`."
      }
    },
    "version": 1
  },
  "userdoc": {
    "kind": "user",
    "methods": {},
    "version": 1
  }
}